:020000040000fa
:080000000002040000000000f2
:020000040000fa
:04000800fe020000f4
:020000040000fa
:04000c00fe020000f0
:020000040000fa
:04001000fe020000ec
:020000040000fa
:04001400fe020000e8
:020000040000fa
:04001800fe020000e4
:020000040000fa
:04001c00fe020000e0
:020000040000fa
:04002000fe020000dc
:020000040000fa
:04002400fe020000d8
:020000040000fa
:04002800fe020000d4
:020000040000fa
:04002c00fe020000d0
:020000040000fa
:04003000fe020000cc
:020000040000fa
:04003400fe020000c8
:020000040000fa
:04003800fe020000c4
:020000040000fa
:04003c00fe020000c0
:020000040000fa
:04004000fe020000bc
:020000040000fa
:04004400c8020000ee
:020000040000fa
:04004800fe020000b4
:020000040000fa
:04004c00fe020000b0
:020000040000fa
:04005000da020000d0
:020000040000fa
:04005400fe020000a8
:020000040000fa
:04005800fe020000a4
:020000040000fa
:04005c00fe020000a0
:020000040000fa
:04006000fe0200009c
:020000040000fa
:04006400fe02000098
:020000040000fa
:04006800fe02000094
:020000040000fa
:04006c00fe02000090
:020000040000fa
:04007000fe0200008c
:020000040000fa
:04007400fe02000088
:020000040000fa
:04007800fe02000084
:020000040000fa
:04007c00fe02000080
:020000040000fa
:04008000fe0200007c
:020000040000fa
:04008400fe02000078
:020000040000fa
:04008800fe02000074
:020000040000fa
:04008c00fe02000070
:020000040000fa
:04009000fe0200006c
:020000040000fa
:04009400fe02000068
:020000040000fa
:04009800fe02000064
:020000040000fa
:04009c00fe02000060
:020000040000fa
:0400a000fe0200005c
:020000040000fa
:0400a400fe02000058
:020000040000fa
:0400a800fe02000054
:020000040000fa
:0400ac00fe02000050
:020000040000fa
:0400b000fe0200004c
:020000040000fa
:0400b400fe02000048
:020000040000fa
:0400b800fe02000044
:020000040000fa
:0400bc00fe02000040
:020000040000fa
:0400c000fe0200003c
:020000040000fa
:0400c400fe02000038
:020000040000fa
:0400c800fe02000034
:020000040000fa
:0400cc00fe02000030
:020000040000fa
:0400d000fe0200002c
:020000040000fa
:0400d400fe02000028
:020000040000fa
:0400d800fe02000024
:020000040000fa
:0400dc00fe02000020
:020000040000fa
:0400e000fe0200001c
:020000040000fa
:0400e400fe02000018
:020000040000fa
:0400e800fe02000014
:020000040000fa
:0400ec00fe02000010
:020000040000fa
:0400f000fe0200000c
:020000040000fa
:0400f400fe02000008
:020000040000fa
:0400f800fe02000004
:020000040000fa
:0400fc00fe02000000
:020000040000fa
:04010000fe020000fb
:020000040000fa
:04010400fe020000f7
:020000040000fa
:04010800fe020000f3
:020000040000fa
:04010c00fe020000ef
:020000040000fa
:04011000fe020000eb
:020000040000fa
:04011400fe020000e7
:020000040000fa
:04011800fe020000e3
:020000040000fa
:04011c00fe020000df
:020000040000fa
:04012000fe020000db
:020000040000fa
:04012400fe020000d7
:020000040000fa
:04012800fe020000d3
:020000040000fa
:04012c00fe020000cf
:020000040000fa
:04013000fe020000cb
:020000040000fa
:04013400fe020000c7
:020000040000fa
:04013800fe020000c3
:020000040000fa
:04013c00fe020000bf
:020000040000fa
:04014000fe020000bb
:020000040000fa
:04014400fe020000b7
:020000040000fa
:04014800fe020000b3
:020000040000fa
:04020800fe020000f2
:020000040000fa
:04020c00fe020000ee
:020000040000fa
:04021000fe020000ea
:020000040000fa
:04021400fe020000e6
:020000040000fa
:04021800fe020000e2
:020000040000fa
:04021c00fe020000de
:020000040000fa
:04022000fe020000da
:020000040000fa
:04022400fe020000d6
:020000040000fa
:04022800fe020000d2
:020000040000fa
:04022c00fe020000ce
:020000040000fa
:04023000fe020000ca
:020000040000fa
:04023400fe020000c6
:020000040000fa
:04023800fe020000c2
:020000040000fa
:04023c00fe020000be
:020000040000fa
:04024000fe020000ba
:020000040000fa
:04024400c8020000ec
:020000040000fa
:04024800fe020000b2
:020000040000fa
:04024c00fe020000ae
:020000040000fa
:04025000da020000ce
:020000040000fa
:04025400fe020000a6
:020000040000fa
:04025800fe020000a2
:020000040000fa
:04025c00fe0200009e
:020000040000fa
:04026000fe0200009a
:020000040000fa
:04026400fe02000096
:020000040000fa
:04026800fe02000092
:020000040000fa
:04026c00fe0200008e
:020000040000fa
:04027000fe0200008a
:020000040000fa
:04027400fe02000086
:020000040000fa
:04027800fe02000082
:020000040000fa
:04027c00fe0200007e
:020000040000fa
:04028000fe0200007a
:020000040000fa
:04028400fe02000076
:020000040000fa
:04028800fe02000072
:020000040000fa
:04028c00fe0200006e
:020000040000fa
:04029000fe0200006a
:020000040000fa
:04029400fe02000066
:020000040000fa
:04029800fe02000062
:020000040000fa
:04029c00fe0200005e
:020000040000fa
:0402a000fe0200005a
:020000040000fa
:0402a400fe02000056
:020000040000fa
:0402a800fe02000052
:020000040000fa
:0402ac00fe0200004e
:020000040000fa
:0402b000fe0200004a
:020000040000fa
:0402b400fe02000046
:020000040000fa
:0402b800fe02000042
:020000040000fa
:0402bc00fe0200003e
:020000040000fa
:0402c000fe0200003a
:020000040000fa
:0402c400fe02000036
:020000040000fa
:0402c800fe02000032
:020000040000fa
:0402cc00fe0200002e
:020000040000fa
:0402d000fe0200002a
:020000040000fa
:0402d400fe02000026
:020000040000fa
:0402d800fe02000022
:020000040000fa
:0402dc00fe0200001e
:020000040000fa
:0402e000fe0200001a
:020000040000fa
:0402e400fe02000016
:020000040000fa
:0402e800fe02000012
:020000040000fa
:0402ec00fe0200000e
:020000040000fa
:0402f000fe0200000a
:020000040000fa
:0402f400fe02000006
:020000040000fa
:0402f800fe02000002
:020000040000fa
:0402fc00fe020000fe
:020000040000fa
:04030000fe020000f9
:020000040000fa
:04030400fe020000f5
:020000040000fa
:04030800fe020000f1
:020000040000fa
:04030c00fe020000ed
:020000040000fa
:04031000fe020000e9
:020000040000fa
:04031400fe020000e5
:020000040000fa
:04031800fe020000e1
:020000040000fa
:04031c00fe020000dd
:020000040000fa
:04032000fe020000d9
:020000040000fa
:04032400fe020000d5
:020000040000fa
:04032800fe020000d1
:020000040000fa
:04032c00fe020000cd
:020000040000fa
:04033000fe020000c9
:020000040000fa
:04033400fe020000c5
:020000040000fa
:04033800fe020000c1
:020000040000fa
:04033c00fe020000bd
:020000040000fa
:04034000fe020000b9
:020000040000fa
:04034400fe020000b5
:020000040000fa
:04034800fe020000b1
:020000040000fa
:100400006f8220000e7f22000e0188000000000095
:10041000000020000000e000020032000001200087
:100420002002880014000700760007000000e000aa
:1004300003003a00404b200001002000020037007a
:100440000000200001002000810f70000100320038
:1004500014000700000020000000e000020032004d
:1004600000000200000000002a030200000000005b
:100470000040da000000fe004440a9000000200017
:100480000000e0000300320000002000a00188000e
:100490004440a800000006008a1f78008b1f7800e7
:1004a0000000060091018800800478000000eb0045
:1004b0001a003700e284440032a0b4009905ba0063
:1004c000e284440032a0b4009906ba00e2844400f9
:1004d00032a0b4000006eb00476fde00fd07b2005b
:1004e000636ce10003003a00ebff07000000eb0043
:1004f0000a003700606ce10004003a00005deb0088
:100500008b05e900fdff3e00040037006168e10053
:10051000010032000086eb000b00070019c7ba008b
:100520001905ba000e04e00003003a000a00e000da
:10053000e0ff3a0000000600fe07b2009e018800be
:100540008a047800f5ff3700395dba008b05e900b1
:100550000c003200295dba008b05e900080032006a
:100560000c00e00003003a00e284440032a0b40032
:10057000f5ff370019ddba008b05e900faff3a00f4
:100580008904e800e184440032a0b40000000600c1
:100590003400f800881f780008002000a8018800b7
:1005a0004f0478000000fa000080fa003400f900df
:1005b00000400600801f78003400f8000000200092
:1005c000a00188000000fa000468ef0005c8bf0021
:1005d0000080fb000000e9004f00de0000407800d2
:1005e00005e8b70040c2a9008540a9000080fa00d4
:1005f0003400f9004f007800004006000040da00a7
:100600000000fe00000005006022b8000602200085
:100610000000d0008180d2000482d2008582d20006
:100620000000a0000202520083825a000300310041
:100630000202420083824a000000a1000603e90092
:10064000f3ff3a0000000600efff07000400be00c1
:0406500000000600a0
:020000040000fa
:100654000400fa0043000700600007006000b800cf
:10066400008fbe001e00be00a20020000300200078
:10067400f4ff07001200200003002000021f4000c6
:10068400039748000e80e8009000780000fa2000ec
:100694000088b900000178001e0078006000b900ed
:1006a40000007800000141009e00780000fa20005c
:1006b4000008b8000101410082007800a200200077
:1006c40003002000cfff07000000780010408800de
:1006d400ccc2a9000000000000000000114080000e
:1006e400f0ff20000080600010408800114080006e
:1006f40000002300010070001040880010c0b30007
:1007040004e8b70005c8bf000080fb000000e90052
:100714004f00de000040780005e8b700104080007c
:1007240040128800cde2a80000000000010037005c
:100734000000000004c8bf000004e000fcff3a0011
:10074400cde2a900ccc2a800500020000100200086
:100754006f000700007d2000010020005700070003
:10076400c0ff37000000fa00213a8000f08f2f000c
:1007740000806000203a8800f0ff2900601988009a
:100784000080eb0040168800c8c2a900ccc2a800b3
:10079400c9e2a900cde2a9000080fa000000060029
:1007a4000000fa001221ef0000fa2000700888000f
:1007b4000a21ef008500a9004105800080ff2f0079
:1007c400008060000020a000400588009500a8007b
:1007d40013e1a8000080fa00000006000000fa00ff
:1007e4008540a90041058000f08f2f000080600043
:1007f4000080a000400588009540a800113a8000c0
:10080400f00b2000008160006004200071052000ce
:100814002374200080497800814978008249780057
:100824004136800000fe2f00008060000030a000f0
:100834004036880041368000f00f2e008080600032
:10084400007020000100700040368800103a8000db
:10085400000178000260a0006004200071052000ff
:100864002374200080497800814978008249780007
:100874004222ef0042a2a8004342a8004302a8007b
:1008840042c2a9001112800030fe2f0000806000d7
:100894001012880011128000c0ff2f000080600039
:1008a4000010a000101288004422ef0040c2a900ea
:1008b40041e2a8000080fa00000006000400fa00eb
:1008c400008fbe00020037007e3e090000000000d9
:1008d4000e80e800100078001e00700000f0a700f1
:1008e4000000ea000000ea004f00de00004078004b
:1008f4000081eb008081eb001e0f41005e974900f0
:100904000004e000f0ff3a000080fa000000060056
:100914000400fa00008fbe00020037000c0009003a
:10092400000000000e80e800100078001e00700037
:1009340000f0a7000000ea000000ea004f00de001b
:10094400004078000081eb008081eb001e0f410025
:100954005e9749000004e000f0ff3a000080fa00ce
:040964000000060089
:020000040000fa
:100968000608000020000000000000000008000049
:0c0978000600000000000000000000006d
:020000040000fa
:020000040001f9
:0457f8000ff90000a5
:020000040000fa
:020000040001f9
:0457fc007f3f0000eb
:00000001FF
